:0B009F0081D7C8C296A2A0C78082FFD4
:10000300C3EE6480948040167D707C00ED1D70010A
:0E0013001CBCFFF8BDFFF5EF1F70E51E80E27C
:0100210022BC
:10004F00EF90009F93FFE4FEEF1392B0C2B1D2B1D5
:08005F00EFC313FF0EBE08F011
:010067002276
:10006800538EBF758920758DFD758BFDE4F58775F9
:090078009850D2AFD2ACD28E2216
:0300230002008157
:07008100C0D075D000C007DC
:06008800AF99C2988F0839
:05008E00D007D0D032C4
:100026001200685390F0E50875F00A8475F00AA48A
:10003600FFE50875F00A84EF25F024D0FF12004F83
:090046007F147E0012000380DD2E
:0300000002009368
:0C009300787FE4F6D8FD75810802002695
:00000001FF
