:0B010D0081D7C8C296A2A0C78082FF65
:10000300C3EE6480948040167D707C00ED1D70010A
:0E0013001CBCFFF8BDFFF5EF1F70E51E80E27C
:0100210022BC
:1000CF00EF90010D93FFE4FEEF1392B0C2B1D2B1E6
:0800DF00EFC313FF0EBE08F091
:0100E70022F6
:1000E800538EBF758920758DFD758BFDE4F5877579
:0900F8009850D2AFD2ACD28E2296
:030023000200AE2A
:0900AE00C0E0C0D075D000C0070D
:1000B700AF99EF750800F509C298F5993099FDC217
:0100C700999F
:0700C800D007D0D0D0E032D8
:10007B001200E85390F0AE08AF097C007D0A120025
:10008B0026EF75F00AA4FBAE08AF097C007D0A12BF
:10009B000026EB2D24D0FF1200CF7FC87E0012006C
:0300AB000380D3FC
:03000000020101F9
:0C010100787FE4F6D8FD75810902007BD0
:10002600BC000BBE0029EF8DF084FFADF022E4CCBE
:10003600F875F008EF2FFFEE33FEEC33FCEE9DEC87
:10004600984005FCEE9DFE0FD5F0E9E4CEFD22EDCD
:10005600F8F5F0EE8420D21CFEADF075F008EF2F17
:10006600FFED33FD4007985006D5F0F222C398FD08
:050076000FD5F0EA22A5
:00000001FF
