:0A05500081D7C8C296A2A0C780821E
:0404BD007F067E0038
:1004C100C3EE6480948040167D727C00ED1D700146
:0E04D1001CBCFFF8BDFFF5EF1F70E51E80E2BA
:0104DF0022FA
:1004FD00EF90055093FFE4FEEF1392B0C2B1D2B16D
:08050D00EFC313FF0EBE08F05E
:0105150022C3
:10046000C297900078E582158270021583E5824577
:100470008370F2D297E4F583F582309717A3AF82A9
:10048000AE83E4FCFD7B507AC3F9F8C3120323501A
:06049000E97F00227F015C
:010496002243
:10049700C29700D2977F087E00EF1F70011EEF4EB4
:1004A70070F7A29792007E007F0FEF1F70011EEF7B
:0504B7004E70F7A200E9
:0104BC00221D
:1004E000E4FD7C01120497E433FFC43333335480BA
:0C04F000FEEDC3134EFD0CBC09EAAF0585
:0104FC0022DD
:09040A007F017E001204C17FCCC9
:100413007E01EF139200EFC313FF300020C2977ADF
:10042300007B08EB1B70011AEB4A70F7D2977A0036
:100433007B0FEB1B70011AEB4A70F7801BC2977A94
:10044300007B0FEB1B70011AEB4A70F7D2970BBBC3
:0C04530000010A0BBB00010A0EBE09B636
:01045F00227A
:10051600120460EF7009FF1204FD5390FB80F11284
:07052600040A7F44020413E4
:10033900120460EF7009FF1204FD5390FB80F11263
:10034900040A7FBE1204131204E0AB071204E0751D
:100359000D008F0EE50E750E00F50DAF03EF420E81
:10036900E4AC0DAD0E120206E4FBFA7980783D1279
:1003790000FB8F0C8E0B8D0A8C09E4FFFE7D207C1F
:1003890041AB0CAA0BA90AA8091200FBE4FBFAF974
:0C039900783F12000A12023F8E0D8F0EFA
:0103A5002235
:0403A600AB07AA06F1
:1003AA007C007D0A1202C08F997C007D64AF03AE87
:1003BA00021202C08F09AE02AF037C007D641202F2
:1003CA00C0AE05EE75F00A84FBEE75F00A84AAF059
:1003DA00C2B543900FAF091204FD5390FB1204BD3E
:1003EA0043900FAF031204FD5390FD1204BD4390D6
:0F03FA000FAF021204FD5390FE1204BD43900F8B
:0104090022D0
:10052D001205167508321203391203A61508E508CF
:07053D00D3940050F180E9A6
:100003000202ABE86480F8E933E83360110460F07E
:10001300ED33EC337009E8FCE9FDEAFEEBFF220463
:1000230060DED3EB9FEA9EE99DE8C2E78CF0C2F75E
:1000330095F0400CE8CCF8E9CDF9EACEFAEBCFFB2A
:1000430012027685D0F05804700320D5B3E804700B
:10005300075002B2D50202B592D5EC0460F7E4CCA6
:10006300C0E0C398F8603B94186008400DD0E0FBF3
:1000730002028DE4FBFAC9FC8028E830E406E4C9F7
:10008300FBE4CAFCE830E305E4C9CACBFCE8540747
:100093006010F8C3E913F9EA13FAEB13FBEC13FC52
:1000A300D8F130F52FC3E49CFCEF9BFFEE9AFEEDF5
:1000B30099FDD0E0FBEF4E4D4C701222DB030202A0
:1000C300B2EC2CFCEF33FFEE33FEED33FDED30E706
:1000D300EB02028DEF2BFFEE3AFEED39FDD0E0FB94
:1000E30050130BBB00030202B5ED13FDEE13FEEF3D
:0800F30013FFEC13FC02028D67
:1000FB00EC4D6011E8497017ED33EC3304600DE4FF
:10010B00FCFFFEFD22E933E8330470F80202AB1268
:10011B00027658046009E4CC248150062850090269
:10012B0002B52840030202B2C0E0EB4A7044B9802A
:10013B0006D0E0FB0202A1EF4E701CBD8008EBFF66
:10014B00EAFEE9FD80EBE98DF0A4FEE5F00201E4A7
:10015B00E9CDF9EAFEEBFFEF89F0A4FCE5F0CE89DF
:10016B00F0A42EFFE435F0CD89F0A42DFEE435F09C
:10017B008067EF4E7005BD80D780C3EF8BF0A4ACCA
:10018B00F0EE8BF0A42CFCE435F0F8EF8AF0A42C05
:10019B00E5F038FCE433CB8DF0A42CFCE5F03BF818
:1001AB00EE8AF0A42CFCE5F038F8E433CF89F0A408
:1001BB002CFCE5F038CF3400CE89F0A42FFFE5F00E
:1001CB003EFEE433C98DF0A42EFEE5F039CD8AF066
:1001DB00A42FFFE5F03EFEE43DFD33D0E0FB5007DE
:1001EB000BBB000F0202B5EC2CFCEF33FFEE33FE22
:0601FB00ED33FD02028D50
:1002010075F020800E75F010800575F0087D007E78
:10021100007F003392D530D503120315EC33401023
:10022100EF33FFEE33FEED33FDEC33FCD5F0ED2281
:0E023100E5F0247EA2D513CC92E7CDCEFF22BD
:10023F00EDD2E7CD33EC3392D524814006E4FFFEB7
:10024F00FDFC22FCE4CFCECDCC24E0501174FF8016
:10025F00EDC3CC13CCCD13CDCE13CECF13CF0470B3
:07026F00F030D5DE0203159B
:10027600E9D2E7C933E833F892D5EDD2E7CD33ECCE
:0702860033FC5002B2D52247
:10028D00EC30E7100FBF000C0EBE00080DBD0004D2
:10029D000BEB6014A2D5EB13FCED92E7FD2274FF7E
:1002AD00FCFDFEFF22E480F8A2D574FF13FC7D80D7
:0302BD00E480EFEB
:03000000020544B2
:0C054400787FE4F6D8FD75812002052DBB
:1002C000BC000BBE0029EF8DF084FFADF022E4CC22
:1002D000F875F008EF2FFFEE33FEEC33FCEE9DECEB
:1002E000984005FCEE9DFE0FD5F0E9E4CEFD22ED31
:1002F000F8F5F0EE8420D21CFEADF075F008EF2F7B
:10030000FFED33FD4007985006D5F0F222C398FD6B
:050310000FD5F0EA2208
:0E031500C3E49FFFE49EFEE49DFDE49CFC22F9
:10032300EB9FF5F0EA9E42F0E99D42F0EC6480C851
:0603330064809845F022F1
:00000001FF
