:0A05730081D7C8C296A2A0C78082FB
:10051E00EF4E60147DC87C00ED1D70011CED4C701B
:08052E00F7EF1F70EB1E80E8DF
:0105360022A2
:1004C700C3EE6480948040167D707C00ED1D700142
:0E04D7001CBCFFF8BDFFF5EF1F70E51E80E2B4
:0104E50022F4
:10053700EF90057393FFE4FEEF1392B0C2B1D2B10F
:08054700EFC313FF0EBE08F024
:01054F002289
:10046C00C297900096E582158270021583E582454D
:10047C008370F2D297E4F583F582309717A3AF829D
:10048C00AE83E4FCFD7B507AC3F9F8C3120323500E
:06049C00E97F00227F0150
:0104A2002237
:1004A300C2970FBF0000D2970FBF00000FBF00001D
:1004B300A29792007E007F08EF1F70011EEF4E701F
:0304C300F7A2009D
:0104C6002213
:1004E600E4FD7C011204A3E433FFC43333335480A8
:0C04F600FEEDC3134EFD0CBC09EAAF057F
:0105020022D6
:09041B007F017E001204C77FCCB2
:100424007E01EF139200EFC313FF30001BC2970B42
:10043400BB00000BBB0000D2977A007B08EB1B705B
:10044400011AEB4A70F7801BC2977A007B08EB1BFA
:1004540070011AEB4A70F7D2970BBB00010A0BBB71
:0704640000010A0EBE09BBF6
:01046B00226E
:1005500012046CEF7009FF1205375390FB80F11203
:07056000041B7F4402042488
:1003390012046CEF7009FF1205375390FB80F1121C
:10034900041B7FBE1204241204E6AB071204E6AABA
:10035900077F0A7E001204C7AF02750F008F10E5F0
:1003690010751000F50FAF03EF4210E4AC0FAD109C
:10037900120206E4FBFA7980783D1200FB8F0E8E9B
:100389000D8D0C8C0BE4FFFE7D207C41AB0EAA0D7C
:10039900A90CA80B1200FBE4FBFAF9783F12000A3A
:0703A90012023F8E0F8F10BE
:0103B000222A
:0403B100AB07AA06E6
:1003B5007C007D0A1202C08F997C007D64AF03AE7C
:1003C500021202C08F0BAE02AF037C007D641202E5
:1003D500C0AE05EE75F00A84FBEE75F00A84AAF04E
:1003E50043900FAF0B1205375390FB7F067E00122B
:1003F50004C743900FAF031205375390FD7F067E68
:10040500001204C743900FAF021205375390FE7FC9
:06041500067E000204C790
:0605030012055075080A04
:0A0509001203398E098F0A1203B1A4
:0B0513001508E508D3940050ED80E5CA
:100003000202ABE86480F8E933E83360110460F07E
:10001300ED33EC337009E8FCE9FDEAFEEBFF220463
:1000230060DED3EB9FEA9EE99DE8C2E78CF0C2F75E
:1000330095F0400CE8CCF8E9CDF9EACEFAEBCFFB2A
:1000430012027685D0F05804700320D5B3E804700B
:10005300075002B2D50202B592D5EC0460F7E4CCA6
:10006300C0E0C398F8603B94186008400DD0E0FBF3
:1000730002028DE4FBFAC9FC8028E830E406E4C9F7
:10008300FBE4CAFCE830E305E4C9CACBFCE8540747
:100093006010F8C3E913F9EA13FAEB13FBEC13FC52
:1000A300D8F130F52FC3E49CFCEF9BFFEE9AFEEDF5
:1000B30099FDD0E0FBEF4E4D4C701222DB030202A0
:1000C300B2EC2CFCEF33FFEE33FEED33FDED30E706
:1000D300EB02028DEF2BFFEE3AFEED39FDD0E0FB94
:1000E30050130BBB00030202B5ED13FDEE13FEEF3D
:0800F30013FFEC13FC02028D67
:1000FB00EC4D6011E8497017ED33EC3304600DE4FF
:10010B00FCFFFEFD22E933E8330470F80202AB1268
:10011B00027658046009E4CC248150062850090269
:10012B0002B52840030202B2C0E0EB4A7044B9802A
:10013B0006D0E0FB0202A1EF4E701CBD8008EBFF66
:10014B00EAFEE9FD80EBE98DF0A4FEE5F00201E4A7
:10015B00E9CDF9EAFEEBFFEF89F0A4FCE5F0CE89DF
:10016B00F0A42EFFE435F0CD89F0A42DFEE435F09C
:10017B008067EF4E7005BD80D780C3EF8BF0A4ACCA
:10018B00F0EE8BF0A42CFCE435F0F8EF8AF0A42C05
:10019B00E5F038FCE433CB8DF0A42CFCE5F03BF818
:1001AB00EE8AF0A42CFCE5F038F8E433CF89F0A408
:1001BB002CFCE5F038CF3400CE89F0A42FFFE5F00E
:1001CB003EFEE433C98DF0A42EFEE5F039CD8AF066
:1001DB00A42FFFE5F03EFEE43DFD33D0E0FB5007DE
:1001EB000BBB000F0202B5EC2CFCEF33FFEE33FE22
:0601FB00ED33FD02028D50
:1002010075F020800E75F010800575F0087D007E78
:10021100007F003392D530D503120315EC33401023
:10022100EF33FFEE33FEED33FDEC33FCD5F0ED2281
:0E023100E5F0247EA2D513CC92E7CDCEFF22BD
:10023F00EDD2E7CD33EC3392D524814006E4FFFEB7
:10024F00FDFC22FCE4CFCECDCC24E0501174FF8016
:10025F00EDC3CC13CCCD13CDCE13CECF13CF0470B3
:07026F00F030D5DE0203159B
:10027600E9D2E7C933E833F892D5EDD2E7CD33ECCE
:0702860033FC5002B2D52247
:10028D00EC30E7100FBF000C0EBE00080DBD0004D2
:10029D000BEB6014A2D5EB13FCED92E7FD2274FF7E
:1002AD00FCFDFEFF22E480F8A2D574FF13FC7D80D7
:0302BD00E480EFEB
:030000000205678F
:0C056700787FE4F6D8FD758120020503C2
:1002C000BC000BBE0029EF8DF084FFADF022E4CC22
:1002D000F875F008EF2FFFEE33FEEC33FCEE9DECEB
:1002E000984005FCEE9DFE0FD5F0E9E4CEFD22ED31
:1002F000F8F5F0EE8420D21CFEADF075F008EF2F7B
:10030000FFED33FD4007985006D5F0F222C398FD6B
:050310000FD5F0EA2208
:0E031500C3E49FFFE49EFEE49DFDE49CFC22F9
:10032300EB9FF5F0EA9E42F0E99D42F0EC6480C851
:0603330064809845F022F1
:00000001FF
