:0A016D0081D7C8C296A2A0C7808205
:04017E000208000073
:10012100C3EE6480948040167D727C00ED1D7001E9
:0E0131001CBCFFF8BDFFF5EF1F70E51E80E25D
:01013F00229D
:10014000EF90016D93FFE4FEEF1392B0C2B1D2B114
:08015000EFC313FF0EBE08F01F
:010158002284
:07017700D288D2A8D2AF220A
:030003000200E711
:1000E700C0E0C0F0C0D075D000C000C004C005C0DB
:1000F70006C0070509E50970020508AE08FF7C0080
:100107007D0A1200928C088D09D007D006D005D041
:0A01170004D000D0D0D0F0D0E032C8
:100159001201775390F0AF091201407F587E0212C5
:04016900012180F2FE
:03000000020006F5
:0C000600787FE4F6D8FD75810902004DFA
:10009200BC000BBE0029EF8DF084FFADF022E4CC52
:1000A200F875F008EF2FFFEE33FEEC33FCEE9DEC1B
:1000B200984005FCEE9DFE0FD5F0E9E4CEFD22ED61
:1000C200F8F5F0EE8420D21CFEADF075F008EF2FAB
:1000D200FFED33FD4007985006D5F0F222C398FD9C
:0500E2000FD5F0EA2239
:10001200020159E493A3F8E493A34003F68001F2AA
:1000220008DFF48029E493A3F85407240CC8C333EF
:10003200C4540F4420C8834004F456800146F6DFBE
:10004200E4800B010204081020408090017EE47ECF
:10005200019360BCA3FF543F30E509541FFEE493B3
:10006200A360010ECF54C025E060A840B8E493A37A
:10007200FAE493A3F8E493A3C8C582C8CAC583CAA5
:10008200F0A3C8C582C8CAC583CADFE9DEE780BE5D
:01018200007C
:00000001FF
