:0A01860081D7C8C296A2A0C78082EC
:04019700020800005A
:10012B00C3EE6480948040167D727C00ED1D7001DF
:0E013B001CBCFFF8BDFFF5EF1F70E51E80E253
:010149002293
:0E01770000007F037E1A7DDFDDFEDEFCDFFA76
:010185002257
:10014A00EF90018693FFE4FEEF1392B0C2B1D2B1F1
:08015A00EFC313FF0EBE08F015
:01016200227A
:07019000D288D2A8D2AF22F1
:030003000200E711
:1000E700C0E0C0F0C0D075D000C000C004C005C0DB
:1000F70006C007C2AF12017720B2160509E50970DD
:10010700020508AE08FF7C007D0A1200928C088D5C
:1001170009D2AFD007D006D005D004D000D0D0D0B8
:04012700F0D0E03202
:100163001201905390F0AF0912014A7F587E021298
:04017300012B80F2EA
:03000000020006F5
:0C000600787FE4F6D8FD75810902004DFA
:10009200BC000BBE0029EF8DF084FFADF022E4CC52
:1000A200F875F008EF2FFFEE33FEEC33FCEE9DEC1B
:1000B200984005FCEE9DFE0FD5F0E9E4CEFD22ED61
:1000C200F8F5F0EE8420D21CFEADF075F008EF2FAB
:1000D200FFED33FD4007985006D5F0F222C398FD9C
:0500E2000FD5F0EA2239
:10001200020163E493A3F8E493A34003F68001F2A0
:1000220008DFF48029E493A3F85407240CC8C333EF
:10003200C4540F4420C8834004F456800146F6DFBE
:10004200E4800B0102040810204080900197E47EB6
:10005200019360BCA3FF543F30E509541FFEE493B3
:10006200A360010ECF54C025E060A840B8E493A37A
:10007200FAE493A3F8E493A3C8C582C8CAC583CAA5
:10008200F0A3C8C582C8CAC583CADFE9DEE780BE5D
:01019B000063
:00000001FF
