:1000DD0081D7C8C296A2A0C78082FFF0F8F4F2F1D2
:070087001200AD7F0A7E00AC
:10008E00C3EE6480948040167D707C00ED1D70017F
:0E009E001CBCFFF8BDFFF5EF1F70E51E80E2F1
:0100AC002231
:1000AD00EF9000DD93FFE4FEEF1392B0C2B1D2B139
:0800BD00EFC313FF0EBE08F0B3
:0100C5002218
:10000300C290D291D292D2937F011200877F0A12BB
:1000130000ADD290C291D292D2937F021200877F19
:100023000A1200ADD290D291C292D2937F031200F2
:10003300877F0A1200ADD290D291D292C2937F04ED
:080043001200877F0A0200ADE4
:10004B0043900F7F011200AD5390F712008A43903B
:10005B000F7F021200AD5390FB12008A43900F7F6B
:10006B00031200AD5390FD12008A43900F7F0412D0
:0C007B0000AD5390FE7F0A7E0002008E54
:1000C60020B20F7F147E0012008E20B205120003AC
:0700D60080F812004B80E9E5
:030000000200ED0E
:0C00ED00787FE4F6D8FD7581070200C69C
:00000001FF
