:1002FB0080828486888A8C81838587898B8D81D740
:08030B00C8C296A2A0C78082BF
:0D03290002080000070A005518041005190D
:04029C007F067E005B
:1002A000C3EE6480948040167D727C00ED1D700169
:0E02B0001CBCFFF8BDFFF5EF1F70E51E80E2DD
:0102BE00221D
:10026F00C296C295D296E4FEEF139294D295EFC345
:10027F0013FFC2950EBE08F0E4FEED139294D295D3
:0C028F00EDC313FDC2950EBE08F0C29630
:01029B002240
:10023D00E4FEC296C295D296FDC295EF139294D26A
:10024D0095EFC313FF0DBD08F0E4FDD295EEC3137A
:10025D00FEC2953094034306800DBD08EEC296AFE5
:01026D00068A
:01026E00226D
:1002BF00E4FD7F8E12026FE4FCEC9002FB93FF745F
:1002CF000A2CF8E6FD12026F0CBC07ED7D807F8EC5
:0302DF0002026FA9
:10031300E4FCEC90030293FF12023D740A2CF8A64E
:05032300070CBC07ED12
:0103280022B2
:1002E200EF90030993FFE4FEEF1392B0C2B1D2B1D3
:0802F200EFC313FF0EBE08F07C
:0102FA0022E1
:10000300E50AC4540F75F00AA4FFE50A540F7C00F7
:100013002FFBEC35F0FA7D0AAF03FE1201E88F11D6
:100023007C007D0AAF03AE021201E88D12E50BC41A
:10003300540F75F00AA4FFE50B540F7C002FFBEC63
:1000430035F0FA7D0AAF03FE1201E88F137C007DC1
:100053000AAF03AE021201E88D14E50CC4540FFB82
:1000630075F00AA4FFE50C540F7C002FFFEC35F06C
:10007300FE7D0A1201E8AA07EB75F00AA4FFE50C5E
:10008300540F7C002FFFEC35F0FE7D0A1201E8AB24
:1000930005E50DC4540F75F00AA4FFE50D540F7C5C
:1000A300002FFFEC35F0FE7D0A1201E88F15E50DF8
:1000B300C4540F75F00AA4FFE50D540F7C002FFF05
:1000C300EC35F0FE7D0A1201E88D16E50DC4540FE0
:1000D30075F00AA4FFE50D540F7C002FFFEC35F0FB
:1000E300FE7D0A1201E88F17E50DC4540F75F00A5F
:1000F300A4FFE50D540F7C002FFFEC35F0FE7D0AC5
:100103001201E88D180509E50970020508C39486F4
:10011300E50894004007B2B7E4F508F50943900FEA
:10012300AF021202E25390F712029C43900FAF0307
:100133001202E25390FB12029C43900FAF13120280
:10014300E25390FD12029C43900FAF141202E2534C
:0801530090FE12029C43900F84
:01015B002281
:0B0337001202BF12031312000380F833
:0300000002015C9E
:0C015C00787FE4F6D8FD7581180201A33D
:1001E800BC000BBE0029EF8DF084FFADF022E4CCFB
:1001F800F875F008EF2FFFEE33FEEC33FCEE9DECC4
:10020800984005FCEE9DFE0FD5F0E9E4CEFD22ED09
:10021800F8F5F0EE8420D21CFEADF075F008EF2F53
:10022800FFED33FD4007985006D5F0F222C398FD44
:050238000FD5F0EA22E1
:10016800020337E493A3F8E493A34003F68001F273
:1001780008DFF48029E493A3F85407240CC8C33398
:10018800C4540F4420C8834004F456800146F6DF67
:10019800E4800B0102040810204080900329E47ECB
:1001A800019360BCA3FF543F30E509541FFEE4935C
:1001B800A360010ECF54C025E060A840B8E493A323
:1001C800FAE493A3F8E493A3C8C582C8CAC583CA4E
:1001D800F0A3C8C582C8CAC583CADFE9DEE780BE06
:0103360000C6
:00000001FF
