:1002CA0080828486888A8C81838587898B8D81D771
:0802DA00C8C296A2A0C78082F1
:0D02F80002080000070A005518041005193F
:04028E007F067E0069
:10029200C3EE6480948040167D727C00ED1D700177
:0E02A2001CBCFFF8BDFFF5EF1F70E51E80E2EB
:0102B000222B
:10023500C296C295D296E4FEEF139294D295EFC37F
:1002450013FFC2950EBE08F0E4FEED139294D2950D
:0C025500EDC313FDC2950EBE08F0C2966A
:01026100227A
:10020300E4FEC296C295D296FDC295EF139294D2A4
:1002130095EFC313FF0DBD08F0E4FDD295EEC313B4
:10022300FEC2953094034306800DBD08EEC296AF1F
:0102330006C4
:0102340022A7
:10026200E4FD7F8E1202357F81120203EF30E71523
:10027200E4FCEC9002CA93FF740A2CF8E6FD120229
:0C028200350CBC07ED7D807F8E0202353C
:1002E200E4FCEC9002D193FF120203740A2CF8A6EC
:0502F200070CBC07ED44
:0102F70022E4
:1002B100EF9002D893FFE4FEEF1392B0C2B1D2B136
:0802C100EFC313FF0EBE08F0AD
:0102C9002212
:10000300E50AC4540F75F00AA4FFE50A540F7C00F7
:100013002FFBEC35F0FA7D0AAF03FE1201AE8F1110
:100023007C007D0AAF03AE021201AE8D12E50BC454
:10003300540F75F00AA4FFE50B540F7C002FFBEC63
:1000430035F0FA7D0AAF03FE1201AE8F137C007DFB
:100053000AAF03AE021201AE8D14E50CC4540FFBBC
:1000630075F00AA4FFE50C540F7C002FFFEC35F06C
:10007300FE7D0A1201AEAA07EB75F00AA4FFE50C98
:10008300540F7C002FFFEC35F0FE7D0A1201AEAB5E
:1000930005E50DC4540F75F00AA4FFE50D540F7C5C
:1000A300002FFFEC35F0FE7D0A1201AE8F15E50D32
:1000B300C4540F75F00AA4FFE50D540F7C002FFF05
:1000C300EC35F0FE7D0A1201AE8D160509E50970C7
:1000D300020508C39486E50894004007B2B7E4F527
:1000E30008F50943900FAF021202B15390F71202C1
:1000F3008E43900FAF031202B15390FB12028E4353
:10010300900FAF131202B15390FD12028E43900F62
:0E011300AF141202B15390FE12028E43900FF1
:0101210022BB
:0B0306001202621202E212000380F8F3
:03000000020122D8
:0C012200787FE4F6D8FD758116020169B3
:1001AE00BC000BBE0029EF8DF084FFADF022E4CC35
:1001BE00F875F008EF2FFFEE33FEEC33FCEE9DECFE
:1001CE00984005FCEE9DFE0FD5F0E9E4CEFD22ED44
:1001DE00F8F5F0EE8420D21CFEADF075F008EF2F8E
:1001EE00FFED33FD4007985006D5F0F222C398FD7F
:0501FE000FD5F0EA221C
:10012E00020306E493A3F8E493A34003F68001F2DE
:10013E0008DFF48029E493A3F85407240CC8C333D2
:10014E00C4540F4420C8834004F456800146F6DFA1
:10015E00E4800B01020408102040809002F8E47E37
:10016E00019360BCA3FF543F30E509541FFEE49396
:10017E00A360010ECF54C025E060A840B8E493A35D
:10018E00FAE493A3F8E493A3C8C582C8CAC583CA88
:10019E00F0A3C8C582C8CAC583CADFE9DEE780BE40
:0103050000F7
:00000001FF
