:1007B60080828486888A8C81838587898B8D81D780
:0907C600C8C296A2A0C78082A956
:0D07FC0002080000070A0055180410051936
:0A070E0012079D5390FB7F067E004A
:10071800C3EE6480948040167D727C00ED1D7001EC
:0E0728001CBCFFF8BDFFF5EF1F70E51E80E260
:0107360022A0
:10079D00EF9007C493FFE4FEEF1392B0C2B1D2B154
:0807AD00EFC313FF0EBE08F0BC
:0107B5002221
:10064B00C297900078E582158270021583E582458A
:10065B008370F2D297E4F583F582309717A3AF82BC
:10066B00AE83E4FCFD7B507AC3F9F8C3120323502D
:06067B00E97F00227F016F
:010681002256
:10073700C29700D2977F087E00EF1F70011EEF4E11
:1007470070F7A29792007E007F0FEF1F70011EEFD8
:050757004E70F7A20046
:01075C00227A
:10078000E4FD7C01120737E433FFC4333333548074
:0C079000FEEDC3134EFD0CBC09EAAF05E2
:01079C00223A
:0905F5007F017E001207187FCC83
:1005FE007E01EF139200EFC313FF300020C2977AF3
:10060E00007B08EB1B70011AEB4A70F7D2977A0049
:10061E007B0FEB1B70011AEB4A70F7801BC2977AA7
:10062E00007B0FEB1B70011AEB4A70F7D2970BBBD6
:0C063E0000010A0BBB00010A0EBE09B649
:01064A00228D
:1007CF0012064BEF7009FF12079D5390FB80F11239
:0707DF0005F57F440205FE51
:1005880012064BEF7009FF12079D5390FB80F11282
:1005980005F57FBE1205FE120780AB0712078075AE
:1005A80011008F12E512751200F511AF03EF421218
:1005B800E4AC11AD12120206E4FBFA7980783D1220
:1005C80000FB8F178E168D158C14E4FFFE7D207CA2
:1005D80041AB17AA16A915A8141200FBE4FBFAF9F7
:0C05E800783F12000A12023F8E118F12A1
:0105F40022E4
:04051A00AB07AA067B
:10051E007C007D0A1202C08F997C007D64AF03AE11
:10052E00021202C08F14AE02AF037C007D64120271
:10053E00C0AE05EE75F00A84FBEE75F00A84AAF0E3
:10054E00C2B5D2B743900FAF1412070E43900FAF40
:10055E000312079D5390FD12071443900FAF021222
:10056E00079D5390FE12071443900F7F0A12079DAA
:09057E005390F712071443900F8B
:010587002251
:1006B400C296C295D296E4FEEF139294D295EFC3FC
:1006C40013FFC2950EBE08F0E4FEED139294D2958A
:0C06D400EDC313FDC2950EBE08F0C296E7
:0106E00022F7
:10068200E4FEC296C295D296FDC295EF139294D221
:1006920095EFC313FF0DBD08F0E4FDD295EEC31331
:1006A200FEC2953094034306800DBD08EEC296AF9C
:0106B2000641
:0106B3002224
:10075D00E4FD7F8E1206B4E4FCEC9007B693FF74B3
:10076D000A2CF8E6FD1206B40CBC07ED7D807F8ED9
:03077D000206B4BD
:1007E600E4FCEC9007BD93FF120682740A2CF8A66F
:0507F600070CBC07ED3B
:0107FB0022DB
:10033900E50AC4540F75F00AA4FFE50A540F7C00BE
:100349002FFBEC35F0FA7D0AAF03FE1202C08F14C1
:100359007C007D0AAF03AE021202C08D15E50BC405
:10036900540F75F00AA4FFE50B540F7C002FFBEC2A
:1003790035F0FA7D0AAF03FE1202C08F167C007DAC
:100389000AAF03AE021202C08D17E50CC4540FFB6D
:1003990075F00AA4FFE50C540F7C002FFFEC35F033
:1003A900FE7D0A1202C0AA07EB75F00AA4FFE50C4C
:1003B900540F7C002FFFEC35F0FE7D0A1202C0AB12
:1003C90005E50DC4540F75F00AA4FFE50D540F7C23
:1003D900002FFFEC35F0FE7D0A1202C08F18E50DE3
:1003E900C4540F75F00AA4FFE50D540F7C002FFFCC
:1003F900EC35F0FE7D0A1202C08D19E50DC4540FCB
:1004090075F00AA4FFE50D540F7C002FFFEC35F0C1
:10041900FE7D0A1202C08F1AE50DC4540F75F00A49
:10042900A4FFE50D540F7C002FFFEC35F0FE7D0A8B
:100439001202C08D1BD2B50509E50970020508C372
:100449009486E50894004007B2B7E4F508F5094336
:10045900900FAF0212079D5390F712071443900FA4
:10046900AF0312070E43900FAF1612079D5390FD6D
:1004790012071443900FAF1712079D5390FE1207EE
:040489001443900F79
:01048D00224C
:1006E10012075D1207E612033920B2F77F057E007B
:1006F10012071820B2ED1207CF751332E513D39408
:0D0701000040F012058812051A151380EF54
:100003000202ABE86480F8E933E83360110460F07E
:10001300ED33EC337009E8FCE9FDEAFEEBFF220463
:1000230060DED3EB9FEA9EE99DE8C2E78CF0C2F75E
:1000330095F0400CE8CCF8E9CDF9EACEFAEBCFFB2A
:1000430012027685D0F05804700320D5B3E804700B
:10005300075002B2D50202B592D5EC0460F7E4CCA6
:10006300C0E0C398F8603B94186008400DD0E0FBF3
:1000730002028DE4FBFAC9FC8028E830E406E4C9F7
:10008300FBE4CAFCE830E305E4C9CACBFCE8540747
:100093006010F8C3E913F9EA13FAEB13FBEC13FC52
:1000A300D8F130F52FC3E49CFCEF9BFFEE9AFEEDF5
:1000B30099FDD0E0FBEF4E4D4C701222DB030202A0
:1000C300B2EC2CFCEF33FFEE33FEED33FDED30E706
:1000D300EB02028DEF2BFFEE3AFEED39FDD0E0FB94
:1000E30050130BBB00030202B5ED13FDEE13FEEF3D
:0800F30013FFEC13FC02028D67
:1000FB00EC4D6011E8497017ED33EC3304600DE4FF
:10010B00FCFFFEFD22E933E8330470F80202AB1268
:10011B00027658046009E4CC248150062850090269
:10012B0002B52840030202B2C0E0EB4A7044B9802A
:10013B0006D0E0FB0202A1EF4E701CBD8008EBFF66
:10014B00EAFEE9FD80EBE98DF0A4FEE5F00201E4A7
:10015B00E9CDF9EAFEEBFFEF89F0A4FCE5F0CE89DF
:10016B00F0A42EFFE435F0CD89F0A42DFEE435F09C
:10017B008067EF4E7005BD80D780C3EF8BF0A4ACCA
:10018B00F0EE8BF0A42CFCE435F0F8EF8AF0A42C05
:10019B00E5F038FCE433CB8DF0A42CFCE5F03BF818
:1001AB00EE8AF0A42CFCE5F038F8E433CF89F0A408
:1001BB002CFCE5F038CF3400CE89F0A42FFFE5F00E
:1001CB003EFEE433C98DF0A42EFEE5F039CD8AF066
:1001DB00A42FFFE5F03EFEE43DFD33D0E0FB5007DE
:1001EB000BBB000F0202B5EC2CFCEF33FFEE33FE22
:0601FB00ED33FD02028D50
:1002010075F020800E75F010800575F0087D007E78
:10021100007F003392D530D503120315EC33401023
:10022100EF33FFEE33FEED33FDEC33FCD5F0ED2281
:0E023100E5F0247EA2D513CC92E7CDCEFF22BD
:10023F00EDD2E7CD33EC3392D524814006E4FFFEB7
:10024F00FDFC22FCE4CFCECDCC24E0501174FF8016
:10025F00EDC3CC13CCCD13CDCE13CECF13CF0470B3
:07026F00F030D5DE0203159B
:10027600E9D2E7C933E833F892D5EDD2E7CD33ECCE
:0702860033FC5002B2D52247
:10028D00EC30E7100FBF000C0EBE00080DBD0004D2
:10029D000BEB6014A2D5EB13FCED92E7FD2274FF7E
:1002AD00FCFDFEFF22E480F8A2D574FF13FC7D80D7
:0302BD00E480EFEB
:0300000002048E69
:0C048E00787FE4F6D8FD7581200204D5CB
:1002C000BC000BBE0029EF8DF084FFADF022E4CC22
:1002D000F875F008EF2FFFEE33FEEC33FCEE9DECEB
:1002E000984005FCEE9DFE0FD5F0E9E4CEFD22ED31
:1002F000F8F5F0EE8420D21CFEADF075F008EF2F7B
:10030000FFED33FD4007985006D5F0F222C398FD6B
:050310000FD5F0EA2208
:0E031500C3E49FFFE49EFEE49DFDE49CFC22F9
:10032300EB9FF5F0EA9E42F0E99D42F0EC6480C851
:0603330064809845F022F1
:10049A000206E1E493A3F8E493A34003F68001F291
:1004AA0008DFF48029E493A3F85407240CC8C33363
:1004BA00C4540F4420C8834004F456800146F6DF32
:1004CA00E4800B01020408102040809007FCE47EBF
:1004DA00019360BCA3FF543F30E509541FFEE49327
:1004EA00A360010ECF54C025E060A840B8E493A3EE
:1004FA00FAE493A3F8E493A3C8C582C8CAC583CA19
:10050A00F0A3C8C582C8CAC583CADFE9DEE780BED0
:0108090000EE
:00000001FF
