:1007AF0080828486888A8C81838587898B8D81D787
:0907BF00C8C296A2A0C78082A95D
:1007F50002080000020A0001070C00551804100544
:0108050019D9
:0A0703001207965390FB7F067E005C
:10070D00C3EE6480948040167D727C00ED1D7001F7
:0E071D001CBCFFF8BDFFF5EF1F70E51E80E26B
:01072B0022AB
:0E08070000007F037E1A7DDFDDFEDEFCDFFADF
:0108150022C0
:10079600EF9007BD93FFE4FEEF1392B0C2B1D2B162
:0807A600EFC313FF0EBE08F0C3
:0107AE002228
:10061400C297900078E582158270021583E58245C1
:100624008370F2D297E4F583F582309717A3AF82F3
:10063400AE83E4FCFD7B507AC3F9F8C31203265061
:06064400E97F00227F01A6
:01064A00228D
:10075300C29700D2977F087E00EF1F70011EEF4EF5
:1007630070F7A29792007E007F0FEF1F70011EEFBC
:050773004E70F7A2002A
:01077800225E
:10077900E4FD7C01120753E433FFC433333354805F
:0C078900FEEDC3134EFD0CBC09EAAF05E9
:010795002241
:0905BE007F017E0012070D7FCCC5
:1005C7007E01EF139200EFC313FF300020C2977A2A
:1005D700007B08EB1B70011AEB4A70F7D2977A0081
:1005E7007B0FEB1B70011AEB4A70F7801BC2977ADF
:1005F700007B0FEB1B70011AEB4A70F7D2970BBB0E
:0C06070000010A0BBB00010A0EBE09B680
:0106130022C4
:1007C800120614EF7009FF1207965390FB80F1127E
:0707D80005BE7F440205C7C6
:10055100120614EF7009FF1207965390FB80F112F7
:1005610005BE7FBE1205C7120779AB071207797561
:1005710013008F14E514751400F513AF03EF421443
:10058100E4AC13AD14120209E4FBFA7980783D1250
:1005910000FE8F198E188D178C16E4FFFE7D207CCE
:1005A10041AB19AA18A917A8161200FEE4FBFAF923
:0C05B100783F12000D1202428E138F14CE
:0105BD00221B
:0404E300AB07AA06B3
:1004E7007C007D0A1202C38F997C007D64AF03AE46
:1004F700021202C38F16AE02AF037C007D641202A4
:10050700C3AE05EE75F00A84FBEE75F00A84AAF017
:10051700C2B5D2B743900FAF1612070343900FAF80
:10052700031207965390FD12070943900FAF02126B
:1005370007965390FE12070943900F7F0A120796FA
:090547005390F712070943900FCD
:010550002288
:10067D00C296C295D296E4FEEF139294D295EFC333
:10068D0013FFC2950EBE08F0E4FEED139294D295C1
:0C069D00EDC313FDC2950EBE08F0C2961E
:0106A900222E
:10064B00E4FEC296C295D296FDC295EF139294D258
:10065B0095EFC313FF0DBD08F0E4FDD295EEC31368
:10066B00FEC2953094034306800DBD08EEC296AFD3
:01067B000678
:01067C00225B
:1006D700E4FD7F8E12067D7F8112064BEF30E71512
:1006E700E4FCEC9007AF93FF740C2CF8E6FD1206C0
:0C06F7007D0CBC07ED7D807F8E02067D2F
:1007DF00E4FCEC9007B693FF12064B740C2CF8A6B2
:0507EF00070CBC07ED42
:0107F40022E2
:10033C00E50CC4540F75F00AA4FFE50C540F7C00B7
:10034C002FFBEC35F0FA7D0AAF03FE1202C38F16B9
:10035C007C007D0AAF03AE021202C38D17E50DC4FB
:10036C00540F75F00AA4FFE50D540F7C002FFBEC25
:10037C0035F0FA7D0AAF03FE1202C38F187C007DA4
:10038C000AAF03AE021202C38D19E50EC4540FFB63
:10039C0075F00AA4FFE50E540F7C002FFFEC35F02E
:1003AC00FE7D0A1202C3AA07EB75F00AA4FFE50E44
:1003BC00540F7C002FFFEC35F0FE7D0A1202C3AB0C
:1003CC0005E50FC4540F75F00AA4FFE50F540F7C1C
:1003DC00002FFFEC35F0FE7D0A1202C38F1AE50FD9
:1003EC00C4540F75F00AA4FFE50F540F7C002FFFC7
:1003FC00EC35F0FE7D0A1202C38D1BD2B50509E562
:10040C000970020508C39486E50894004007B2B74A
:10041C00E4F508F50943900FAF021207965390F7D5
:10042C0012070943900FAF0312070343900FAF1845
:10043C001207965390FD12070943900FAF1912073C
:0A044C00965390FE12070943900F2B
:010456002283
:07081600D288D2A8D2AF2264
:0300030002072CC5
:10072C00C0D075D000C005C006C007C2AF12080704
:10073C0020B20943900F630BFF630AFFD2AFD007BF
:07074C00D006D005D0D03229
:1006AA001208161206D7E50B6401450A70081207EC
:1006BA00DF12033C80F01207C8751528E515D3949C
:0D06CA000040E31205511204E3151580EF06
:100006000202AEE86480F8E933E83360110460F078
:10001600ED33EC337009E8FCE9FDEAFEEBFF220460
:1000260060DED3EB9FEA9EE99DE8C2E78CF0C2F75B
:1000360095F0400CE8CCF8E9CDF9EACEFAEBCFFB27
:1000460012027985D0F05804700320D5B3E8047005
:10005600075002B2D50202B892D5EC0460F7E4CCA0
:10006600C0E0C398F8603B94186008400DD0E0FBF0
:10007600020290E4FBFAC9FC8028E830E406E4C9F1
:10008600FBE4CAFCE830E305E4C9CACBFCE8540744
:100096006010F8C3E913F9EA13FAEB13FBEC13FC4F
:1000A600D8F130F52FC3E49CFCEF9BFFEE9AFEEDF2
:1000B60099FDD0E0FBEF4E4D4C701222DB0302029D
:1000C600B5EC2CFCEF33FFEE33FEED33FDED30E700
:1000D600EB020290EF2BFFEE3AFEED39FDD0E0FB8E
:1000E60050130BBB00030202B8ED13FDEE13FEEF37
:0800F60013FFEC13FC02029061
:1000FE00EC4D6011E8497017ED33EC3304600DE4FC
:10010E00FCFFFEFD22E933E8330470F80202AE1262
:10011E00027958046009E4CC248150062850090263
:10012E0002B82840030202B5C0E0EB4A7044B98021
:10013E0006D0E0FB0202A4EF4E701CBD8008EBFF60
:10014E00EAFEE9FD80EBE98DF0A4FEE5F00201E7A1
:10015E00E9CDF9EAFEEBFFEF89F0A4FCE5F0CE89DC
:10016E00F0A42EFFE435F0CD89F0A42DFEE435F099
:10017E008067EF4E7005BD80D780C3EF8BF0A4ACC7
:10018E00F0EE8BF0A42CFCE435F0F8EF8AF0A42C02
:10019E00E5F038FCE433CB8DF0A42CFCE5F03BF815
:1001AE00EE8AF0A42CFCE5F038F8E433CF89F0A405
:1001BE002CFCE5F038CF3400CE89F0A42FFFE5F00B
:1001CE003EFEE433C98DF0A42EFEE5F039CD8AF063
:1001DE00A42FFFE5F03EFEE43DFD33D0E0FB5007DB
:1001EE000BBB000F0202B8EC2CFCEF33FFEE33FE1C
:0601FE00ED33FD0202904A
:1002040075F020800E75F010800575F0087D007E75
:10021400007F003392D530D503120318EC3340101D
:10022400EF33FFEE33FEED33FDEC33FCD5F0ED227E
:0E023400E5F0247EA2D513CC92E7CDCEFF22BA
:10024200EDD2E7CD33EC3392D524814006E4FFFEB4
:10025200FDFC22FCE4CFCECDCC24E0501174FF8013
:10026200EDC3CC13CCCD13CDCE13CECF13CF0470B0
:07027200F030D5DE02031895
:10027900E9D2E7C933E833F892D5EDD2E7CD33ECCB
:0702890033FC5002B2D52244
:10029000EC30E7100FBF000C0EBE00080DBD0004CF
:1002A0000BEB6014A2D5EB13FCED92E7FD2274FF7B
:1002B000FCFDFEFF22E480F8A2D574FF13FC7D80D4
:0302C000E480EFE8
:03000000020457A0
:0C045700787FE4F6D8FD75812002049E39
:1002C300BC000BBE0029EF8DF084FFADF022E4CC1F
:1002D300F875F008EF2FFFEE33FEEC33FCEE9DECE8
:1002E300984005FCEE9DFE0FD5F0E9E4CEFD22ED2E
:1002F300F8F5F0EE8420D21CFEADF075F008EF2F78
:10030300FFED33FD4007985006D5F0F222C398FD68
:050313000FD5F0EA2205
:0E031800C3E49FFFE49EFEE49DFDE49CFC22F6
:10032600EB9FF5F0EA9E42F0E99D42F0EC6480C84E
:0603360064809845F022EE
:100463000206AAE493A3F8E493A34003F68001F2FF
:1004730008DFF48029E493A3F85407240CC8C3339A
:10048300C4540F4420C8834004F456800146F6DF69
:10049300E4800B01020408102040809007F5E47EFD
:1004A300019360BCA3FF543F30E509541FFEE4935E
:1004B300A360010ECF54C025E060A840B8E493A325
:1004C300FAE493A3F8E493A3C8C582C8CAC583CA50
:1004D300F0A3C8C582C8CAC583CADFE9DEE780BE08
:0108060000F1
:00000001FF
