:1007E00080828486888A8C81838587898B8D81D756
:0907F000C8C296A2A0C78082A92C
:1008260002080000020A0001070C00551804100512
:0108360019A8
:0A0711001207C75390FB7F067E001D
:10071B00C3EE6480948040167D727C00ED1D7001E9
:0E072B001CBCFFF8BDFFF5EF1F70E51E80E25D
:01073900229D
:0E08380000007F037E1A7DDFDDFEDEFCDFFAAE
:01084600228F
:1007C700EF9007EE93FFE4FEEF1392B0C2B1D2B100
:0807D700EFC313FF0EBE08F092
:0107DF0022F7
:10064E00C297900078E582158270021583E5824587
:10065E008370F2D297E4F583F582309717A3AF82B9
:10066E00AE83E4FCFD7B507AC3F9F8C31203265027
:06067E00E97F00227F016C
:010684002253
:10076100C29700D2977F087E00EF1F70011EEF4EE7
:1007710070F7A29792007E007F0FEF1F70011EEFAE
:050781004E70F7A2001C
:010786002250
:1007AA00E4FD7C01120761E433FFC4333333548020
:0C07BA00FEEDC3134EFD0CBC09EAAF05B8
:0107C6002210
:0905F8007F017E0012071B7FCC7D
:100601007E01EF139200EFC313FF300020C2977AEF
:10061100007B08EB1B70011AEB4A70F7D2977A0046
:100621007B0FEB1B70011AEB4A70F7801BC2977AA4
:10063100007B0FEB1B70011AEB4A70F7D2970BBBD3
:0C06410000010A0BBB00010A0EBE09B646
:01064D00228A
:1007F90012064EEF7009FF1207C75390FB80F112E2
:0708090005F87F440206011F
:10058B0012064EEF7009FF1207C75390FB80F11252
:10059B0005F87FBE1206011207AAAB071207AA7550
:1005AB0013008F14E514751400F513AF03EF421409
:1005BB00E4AC13AD14120209E4FBFA7980783D1216
:1005CB0000FE8F198E188D178C16E4FFFE7D207C94
:1005DB0041AB19AA18A917A8161200FEE4FBFAF9E9
:0C05EB00783F12000D1202428E138F1494
:0105F70022E1
:04051D00AB07AA0678
:100521007C007D0A1202C38F997C007D64AF03AE0B
:10053100021202C38F16AE02AF037C007D64120269
:10054100C3AE05EE75F00A84FBEE75F00A84AAF0DD
:10055100C2B5D2B743900FAF1612071143900FAF38
:10056100031207C75390FD12071743900FAF0212F2
:1005710007C75390FE12071743900F7F0A1207C750
:090581005390F712071743900F85
:01058A00224E
:1006B700C296C295D296E4FEEF139294D295EFC3F9
:1006C70013FFC2950EBE08F0E4FEED139294D29587
:0C06D700EDC313FDC2950EBE08F0C296E4
:0106E30022F4
:10068500E4FEC296C295D296FDC295EF139294D21E
:1006950095EFC313FF0DBD08F0E4FDD295EEC3132E
:1006A500FEC2953094034306800DBD08EEC296AF99
:0106B500063E
:0106B6002221
:10078700E4FD7F8E1206B7E4FCEC9007E093FF745C
:100797000C2CF8E6FD1206B70CBC07ED7D807F8EAA
:0307A7000206B790
:10081000E4FCEC9007E793FF120685740C2CF8A615
:05082000070CBC07ED10
:0108250022B0
:10033C00E50CC4540F75F00AA4FFE50C540F7C00B7
:10034C002FFBEC35F0FA7D0AAF03FE1202C38F16B9
:10035C007C007D0AAF03AE021202C38D17E50DC4FB
:10036C00540F75F00AA4FFE50D540F7C002FFBEC25
:10037C0035F0FA7D0AAF03FE1202C38F187C007DA4
:10038C000AAF03AE021202C38D19E50EC4540FFB63
:10039C0075F00AA4FFE50E540F7C002FFFEC35F02E
:1003AC00FE7D0A1202C3AA07EB75F00AA4FFE50E44
:1003BC00540F7C002FFFEC35F0FE7D0A1202C3AB0C
:1003CC0005E50FC4540F75F00AA4FFE50F540F7C1C
:1003DC00002FFFEC35F0FE7D0A1202C38F1AE50FD9
:1003EC00C4540F75F00AA4FFE50F540F7C002FFFC7
:1003FC00EC35F0FE7D0A1202C38D1BE50FC4540FC1
:10040C0075F00AA4FFE50F540F7C002FFFEC35F0BC
:10041C00FE7D0A1202C38F1CE50FC4540F75F00A3F
:10042C00A4FFE50F540F7C002FFFEC35F0FE7D0A86
:10043C001202C38D1DD2B50509E50970020508C36A
:10044C009486E50894004007B2B7E4F508F5094333
:10045C00900FAF021207C75390F712071743900F74
:10046C00AF0312071143900FAF181207C75390FD3B
:10047C0012071743900FAF191207C75390FE1207BC
:04048C001743900F73
:010490002249
:07084700D288D2A8D2AF2233
:0300030002073AB7
:10073A00C0D075D000C005C006C007C2AF120838C5
:10074A0020B20943900F630BFF630AFFD2AFD007B1
:07075A00D006D005D0D0321B
:1006E400120847120787E50B6401450A70081208CF
:1006F4001012033C80F01207F9751528E515D39400
:0D0704000040E312058B12051D151580EF56
:100006000202AEE86480F8E933E83360110460F078
:10001600ED33EC337009E8FCE9FDEAFEEBFF220460
:1000260060DED3EB9FEA9EE99DE8C2E78CF0C2F75B
:1000360095F0400CE8CCF8E9CDF9EACEFAEBCFFB27
:1000460012027985D0F05804700320D5B3E8047005
:10005600075002B2D50202B892D5EC0460F7E4CCA0
:10006600C0E0C398F8603B94186008400DD0E0FBF0
:10007600020290E4FBFAC9FC8028E830E406E4C9F1
:10008600FBE4CAFCE830E305E4C9CACBFCE8540744
:100096006010F8C3E913F9EA13FAEB13FBEC13FC4F
:1000A600D8F130F52FC3E49CFCEF9BFFEE9AFEEDF2
:1000B60099FDD0E0FBEF4E4D4C701222DB0302029D
:1000C600B5EC2CFCEF33FFEE33FEED33FDED30E700
:1000D600EB020290EF2BFFEE3AFEED39FDD0E0FB8E
:1000E60050130BBB00030202B8ED13FDEE13FEEF37
:0800F60013FFEC13FC02029061
:1000FE00EC4D6011E8497017ED33EC3304600DE4FC
:10010E00FCFFFEFD22E933E8330470F80202AE1262
:10011E00027958046009E4CC248150062850090263
:10012E0002B82840030202B5C0E0EB4A7044B98021
:10013E0006D0E0FB0202A4EF4E701CBD8008EBFF60
:10014E00EAFEE9FD80EBE98DF0A4FEE5F00201E7A1
:10015E00E9CDF9EAFEEBFFEF89F0A4FCE5F0CE89DC
:10016E00F0A42EFFE435F0CD89F0A42DFEE435F099
:10017E008067EF4E7005BD80D780C3EF8BF0A4ACC7
:10018E00F0EE8BF0A42CFCE435F0F8EF8AF0A42C02
:10019E00E5F038FCE433CB8DF0A42CFCE5F03BF815
:1001AE00EE8AF0A42CFCE5F038F8E433CF89F0A405
:1001BE002CFCE5F038CF3400CE89F0A42FFFE5F00B
:1001CE003EFEE433C98DF0A42EFEE5F039CD8AF063
:1001DE00A42FFFE5F03EFEE43DFD33D0E0FB5007DB
:1001EE000BBB000F0202B8EC2CFCEF33FFEE33FE1C
:0601FE00ED33FD0202904A
:1002040075F020800E75F010800575F0087D007E75
:10021400007F003392D530D503120318EC3340101D
:10022400EF33FFEE33FEED33FDEC33FCD5F0ED227E
:0E023400E5F0247EA2D513CC92E7CDCEFF22BA
:10024200EDD2E7CD33EC3392D524814006E4FFFEB4
:10025200FDFC22FCE4CFCECDCC24E0501174FF8013
:10026200EDC3CC13CCCD13CDCE13CECF13CF0470B0
:07027200F030D5DE02031895
:10027900E9D2E7C933E833F892D5EDD2E7CD33ECCB
:0702890033FC5002B2D52244
:10029000EC30E7100FBF000C0EBE00080DBD0004CF
:1002A0000BEB6014A2D5EB13FCED92E7FD2274FF7B
:1002B000FCFDFEFF22E480F8A2D574FF13FC7D80D4
:0302C000E480EFE8
:0300000002049166
:0C049100787FE4F6D8FD7581200204D8C5
:1002C300BC000BBE0029EF8DF084FFADF022E4CC1F
:1002D300F875F008EF2FFFEE33FEEC33FCEE9DECE8
:1002E300984005FCEE9DFE0FD5F0E9E4CEFD22ED2E
:1002F300F8F5F0EE8420D21CFEADF075F008EF2F78
:10030300FFED33FD4007985006D5F0F222C398FD68
:050313000FD5F0EA2205
:0E031800C3E49FFFE49EFEE49DFDE49CFC22F6
:10032600EB9FF5F0EA9E42F0E99D42F0EC6480C84E
:0603360064809845F022EE
:10049D000206E4E493A3F8E493A34003F68001F28B
:1004AD0008DFF48029E493A3F85407240CC8C33360
:1004BD00C4540F4420C8834004F456800146F6DF2F
:1004CD00E4800B0102040810204080900826E47E91
:1004DD00019360BCA3FF543F30E509541FFEE49324
:1004ED00A360010ECF54C025E060A840B8E493A3EB
:1004FD00FAE493A3F8E493A3C8C582C8CAC583CA16
:10050D00F0A3C8C582C8CAC583CADFE9DEE780BECD
:0108370000C0
:00000001FF
