BL51 BANKED LINKER/LOCATER V6.22.2.0                                                    10/14/2019  10:41:22  PAGE 1


BL51 BANKED LINKER/LOCATER V6.22.2.0, INVOKED BY:
E:\MDK\INSTALL\CORE\C51\BIN\BL51.EXE .\Objects\main.obj TO .\Objects\test PRINT (.\Listings\test.m51) RAMSIZE (256)


MEMORY MODEL: SMALL


INPUT MODULES INCLUDED:
  .\Objects\main.obj (MAIN)
  E:\MDK\INSTALL\CORE\C51\LIB\C51S.LIB (?C_STARTUP)


LINK MAP OF MODULE:  .\Objects\test (MAIN)


            TYPE    BASE      LENGTH    RELOCATION   SEGMENT NAME
            -----------------------------------------------------

            * * * * * * *   D A T A   M E M O R Y   * * * * * * *
            REG     0000H     0008H     ABSOLUTE     "REG BANK 0"
            IDATA   0008H     0001H     UNIT         ?STACK

            * * * * * * *   C O D E   M E M O R Y   * * * * * * *
            CODE    0000H     0003H     ABSOLUTE     
            CODE    0003H     0026H     UNIT         ?PR?MAIN?MAIN
            CODE    0029H     001FH     UNIT         ?PR?_DELAY_MS?MAIN
            CODE    0048H     0019H     UNIT         ?PR?_SENDBYTE_74HC164?MAIN
            CODE    0061H     000CH     UNIT         ?C_C51STARTUP
            CODE    006DH     000AH     UNIT         ?CO?MAIN



OVERLAY MAP OF MODULE:   .\Objects\test (MAIN)


SEGMENT
  +--> CALLED SEGMENT
---------------------
?C_C51STARTUP
  +--> ?PR?MAIN?MAIN

?PR?MAIN?MAIN
  +--> ?PR?_DELAY_MS?MAIN
  +--> ?PR?_SENDBYTE_74HC164?MAIN

?PR?_SENDBYTE_74HC164?MAIN
  +--> ?CO?MAIN



SYMBOL TABLE OF MODULE:  .\Objects\test (MAIN)

  VALUE           TYPE          NAME
  ----------------------------------

  -------         MODULE        MAIN
  C:0000H         SYMBOL        _ICE_DUMMY_
  D:0090H         PUBLIC        P1
BL51 BANKED LINKER/LOCATER V6.22.2.0                                                  10/14/2019  10:41:22  PAGE 2


  D:00B0H         PUBLIC        P3
  D:00A8H         PUBLIC        IE
  C:0048H         PUBLIC        _SendByte_74HC164
  D:00B8H         PUBLIC        IP
  C:0003H         PUBLIC        main
  D:0098H         PUBLIC        SCON
  D:0088H         PUBLIC        TCON
  C:006DH         PUBLIC        tab
  C:0029H         PUBLIC        _delay_ms
  B:00B0H.0       PUBLIC        DAT
  B:00B0H.1       PUBLIC        CLK
  D:00C8H         PUBLIC        T2CON
  D:00D0H         PUBLIC        PSW
  -------         PROC          _DELAY_MS
  D:0006H         SYMBOL        mstime
  -------         DO            
  D:0006H         SYMBOL        i
  D:0004H         SYMBOL        j
  -------         ENDDO         
  C:0029H         LINE#         25
  C:0029H         LINE#         26
  C:0029H         LINE#         28
  C:0031H         LINE#         29
  C:0047H         LINE#         30
  -------         ENDPROC       _DELAY_MS
  -------         PROC          _SENDBYTE_74HC164
  D:0007H         SYMBOL        byte
  -------         DO            
  D:0007H         SYMBOL        num
  D:0006H         SYMBOL        c
  -------         ENDDO         
  C:0048H         LINE#         39
  C:0048H         LINE#         40
  C:0048H         LINE#         42
  C:004EH         LINE#         43
  C:0050H         LINE#         44
  C:0050H         LINE#         45
  C:0054H         LINE#         46
  C:0056H         LINE#         47
  C:0058H         LINE#         48
  C:005CH         LINE#         49
  C:0060H         LINE#         50
  -------         ENDPROC       _SENDBYTE_74HC164
  -------         PROC          MAIN
  -------         DO            
  D:0002H         SYMBOL        num
  -------         ENDDO         
  C:0003H         LINE#         54
  C:0003H         LINE#         55
  C:0003H         LINE#         57
  C:0006H         LINE#         60
  C:0006H         LINE#         61
  C:0006H         LINE#         62
  C:0009H         LINE#         63
  C:0009H         LINE#         64
  C:0010H         LINE#         65
  C:0015H         LINE#         66
BL51 BANKED LINKER/LOCATER V6.22.2.0                                                  10/14/2019  10:41:22  PAGE 3


  C:001CH         LINE#         67
  -------         ENDPROC       MAIN
  -------         ENDMOD        MAIN

Program Size: data=9.0 xdata=0 code=119
LINK/LOCATE RUN COMPLETE.  0 WARNING(S),  0 ERROR(S)
