:0A01A30081D7C8C296A2A0C78082CF
:04000300020A0000ED
:10014200C3EE6480948040167D727C00ED1D7001C8
:0E0152001CBCFFF8BDFFF5EF1F70E51E80E23C
:01016000227C
:10016100EF9001A393FFE4FEEF1392B0C2B1D2B1BD
:08017100EFC313FF0EBE08F0FE
:010179002263
:10017A00758901758A67758CFCD28CD2A9D2AFE4D5
:05018A00F508F5092253
:03000B000200EF01
:1000EF00C0E0C0F0C0D075D000C000C004C005C0D3
:1000FF0006C007758A67758CFCE5091509AE08708F
:10010F000215084E701C7508037509E8050BE50B01
:10011F007002050AAE0AFF7C007D0A12009A8C0A53
:10012F008D0BD007D006D005D004D000D0D0D0F0A2
:03013F00D0E032DB
:10018F0012017A5390F0AF0B1201617F587E021269
:04019F00014280F2A7
:0300000002000EED
:0C000E00787FE4F6D8FD75810B020055E8
:10009A00BC000BBE0029EF8DF084FFADF022E4CC4A
:1000AA00F875F008EF2FFFEE33FEEC33FCEE9DEC13
:1000BA00984005FCEE9DFE0FD5F0E9E4CEFD22ED59
:1000CA00F8F5F0EE8420D21CFEADF075F008EF2FA3
:1000DA00FFED33FD4007985006D5F0F222C398FD94
:0500EA000FD5F0EA2231
:10001A0002018FE493A3F8E493A34003F68001F26C
:10002A0008DFF48029E493A3F85407240CC8C333E7
:10003A00C4540F4420C8834004F456800146F6DFB6
:10004A00E4800B0102040810204080900003E47E43
:10005A00019360BCA3FF543F30E509541FFEE493AB
:10006A00A360010ECF54C025E060A840B8E493A372
:10007A00FAE493A3F8E493A3C8C582C8CAC583CA9D
:10008A00F0A3C8C582C8CAC583CADFE9DEE780BE55
:0100070000F8
:00000001FF
