:0A01AC0081D7C8C296A2A0C78082C6
:0B01A000020B000002080014010AFE20
:10014100C3EE6480948040167D727C00ED1D7001C9
:0E0151001CBCFFF8BDFFF5EF1F70E51E80E23D
:01015F00227D
:10016000EF9001AC93FFE4FEEF1392B0C2B1D2B1B5
:08017000EFC313FF0EBE08F0FF
:010178002264
:10018D00538E7F758901E4F58A758C4CD28CD2A97A
:03019D00D2AF22BC
:03000B000200EF01
:1000EF00C0E0C0F0C0D075D000C000C004C005C0D3
:1000FF0006C007758A00758C4CE5091509AE0870A6
:10010F000215084E701BF508750914050CE50C70E7
:10011F0002050BAE0BFF7C007D0A12009A8C0B8D33
:10012F000CD007D006D005D004D000D0D0D0F0D05E
:02013F00E032AC
:1001790012018D5390F0AF0C1201607F3C7E00128A
:04018900014180F2BE
:0300000002000EED
:0C000E00787FE4F6D8FD75810C020055E7
:10009A00BC000BBE0029EF8DF084FFADF022E4CC4A
:1000AA00F875F008EF2FFFEE33FEEC33FCEE9DEC13
:1000BA00984005FCEE9DFE0FD5F0E9E4CEFD22ED59
:1000CA00F8F5F0EE8420D21CFEADF075F008EF2FA3
:1000DA00FFED33FD4007985006D5F0F222C398FD94
:0500EA000FD5F0EA2231
:10001A00020179E493A3F8E493A34003F68001F282
:10002A0008DFF48029E493A3F85407240CC8C333E7
:10003A00C4540F4420C8834004F456800146F6DFB6
:10004A00E4800B01020408102040809001A0E47EA5
:10005A00019360BCA3FF543F30E509541FFEE493AB
:10006A00A360010ECF54C025E060A840B8E493A372
:10007A00FAE493A3F8E493A3C8C582C8CAC583CA9D
:10008A00F0A3C8C582C8CAC583CADFE9DEE780BE55
:0101AB000053
:00000001FF
