:03010500010800EE
:0E00E70000007F037E1A7DDFDDFEDEFCDFFA07
:0100F50022E8
:1000CE00538EBF758920758DFD758BFDE4F5877593
:0900DE009850D2AFD2ACD28E22B0
:0700FE00D288D2A8D2AF2284
:0300030002009266
:10009200C0E0C0F0C0D075D000C005C006C007C225
:1000A200AF1200E720B2160508E50875F00A84854C
:1000B200F008E5082430F5993099FDC299D2AFD005
:0C00C20007D006D005D0D0D0F0D0E0323E
:0800F6001200FE1200CE80FE94
:03000000020006F5
:0C000600787FE4F6D8FD75810902004DFA
:100012000200F6E493A3F8E493A34003F68001F20E
:1000220008DFF48029E493A3F85407240CC8C333EF
:10003200C4540F4420C8834004F456800146F6DFBE
:10004200E4800B0102040810204080900105E47E48
:10005200019360BCA3FF543F30E509541FFEE493B3
:10006200A360010ECF54C025E060A840B8E493A37A
:10007200FAE493A3F8E493A3C8C582C8CAC583CAA5
:10008200F0A3C8C582C8CAC583CADFE9DEE780BE5D
:0101080000F6
:00000001FF
