:04016D000208000084
:0E014F0000007F037E1A7DDFDDFEDEFCDFFA9E
:01015D00227F
:10013600538EBF758920758DFD758BFDE4F587752A
:090146009850D2AFD2ACD28E2247
:07016600D288D2A8D2AF221B
:030003000200E711
:1000E700C0E0C0F0C0D075D000C000C004C005C0DB
:1000F70006C007C2AF12014F20B2210509E50970FA
:10010700020508AE08FF7C007D0A1200928C088D5C
:1001170009E5092430F5993099FDC299D2AFD00786
:0F012700D006D005D004D000D0D0D0F0D0E03238
:08015E0012016612013680FE59
:03000000020006F5
:0C000600787FE4F6D8FD75810A02004DF9
:10009200BC000BBE0029EF8DF084FFADF022E4CC52
:1000A200F875F008EF2FFFEE33FEEC33FCEE9DEC1B
:1000B200984005FCEE9DFE0FD5F0E9E4CEFD22ED61
:1000C200F8F5F0EE8420D21CFEADF075F008EF2FAB
:1000D200FFED33FD4007985006D5F0F222C398FD9C
:0500E2000FD5F0EA2239
:1000120002015EE493A3F8E493A34003F68001F2A5
:1000220008DFF48029E493A3F85407240CC8C333EF
:10003200C4540F4420C8834004F456800146F6DFBE
:10004200E4800B010204081020408090016DE47EE0
:10005200019360BCA3FF543F30E509541FFEE493B3
:10006200A360010ECF54C025E060A840B8E493A37A
:10007200FAE493A3F8E493A3C8C582C8CAC583CAA5
:10008200F0A3C8C582C8CAC583CADFE9DEE780BE5D
:01017100008D
:00000001FF
