BL51 BANKED LINKER/LOCATER V6.22.2.0                                                    11/22/2019  08:14:09  PAGE 1


BL51 BANKED LINKER/LOCATER V6.22.2.0, INVOKED BY:
E:\MDK\INSTALL\CORE\C51\BIN\BL51.EXE .\Objects\main.obj TO .\Objects\test PRINT (.\Listings\test.m51) RAMSIZE (256)


MEMORY MODEL: SMALL


INPUT MODULES INCLUDED:
  .\Objects\main.obj (MAIN)
  E:\MDK\INSTALL\CORE\C51\LIB\C51S.LIB (?C_STARTUP)


LINK MAP OF MODULE:  .\Objects\test (MAIN)


            TYPE    BASE      LENGTH    RELOCATION   SEGMENT NAME
            -----------------------------------------------------

            * * * * * * *   D A T A   M E M O R Y   * * * * * * *
            REG     0000H     0008H     ABSOLUTE     "REG BANK 0"
            DATA    0008H     0001H     UNIT         ?DT?MAIN
            IDATA   0009H     0001H     UNIT         ?STACK

            * * * * * * *   C O D E   M E M O R Y   * * * * * * *
            CODE    0000H     0003H     ABSOLUTE     
            CODE    0003H     001FH     UNIT         ?PR?_DELAY_MS?MAIN
                    0022H     0001H                  *** GAP ***
            CODE    0023H     0003H     ABSOLUTE     
            CODE    0026H     0029H     UNIT         ?PR?MAIN?MAIN
            CODE    004FH     0019H     UNIT         ?PR?_SENDBYTE_74HC164?MAIN
            CODE    0068H     0019H     UNIT         ?PR?UARTCONFIG?MAIN
            CODE    0081H     0012H     UNIT         ?PR?UARTSERVICE?MAIN
            CODE    0093H     000CH     UNIT         ?C_C51STARTUP
            CODE    009FH     000BH     UNIT         ?CO?MAIN



OVERLAY MAP OF MODULE:   .\Objects\test (MAIN)


SEGMENT
  +--> CALLED SEGMENT
---------------------
?C_C51STARTUP
  +--> ?PR?MAIN?MAIN

?PR?MAIN?MAIN
  +--> ?PR?UARTCONFIG?MAIN
  +--> ?PR?_SENDBYTE_74HC164?MAIN
  +--> ?PR?_DELAY_MS?MAIN

?PR?_SENDBYTE_74HC164?MAIN
  +--> ?CO?MAIN



SYMBOL TABLE OF MODULE:  .\Objects\test (MAIN)

BL51 BANKED LINKER/LOCATER V6.22.2.0                                                  11/22/2019  08:14:09  PAGE 2


  VALUE           TYPE          NAME
  ----------------------------------

  -------         MODULE        MAIN
  C:0000H         SYMBOL        _ICE_DUMMY_
  D:0090H         PUBLIC        P1
  D:00B0H         PUBLIC        P3
  B:00A8H.7       PUBLIC        EA
  D:00A8H         PUBLIC        IE
  C:004FH         PUBLIC        _SendByte_74HC164
  B:00A8H.4       PUBLIC        ES
  D:00B8H         PUBLIC        IP
  B:0098H.0       PUBLIC        RI
  C:0026H         PUBLIC        main
  D:0099H         PUBLIC        SBUF
  D:0087H         PUBLIC        PCON
  D:0098H         PUBLIC        SCON
  D:0089H         PUBLIC        TMOD
  D:0088H         PUBLIC        TCON
  C:009FH         PUBLIC        tab
  D:0008H         PUBLIC        show_data
  D:008EH         PUBLIC        AUXR
  D:008DH         PUBLIC        TH1
  D:008BH         PUBLIC        TL1
  C:0003H         PUBLIC        _delay_ms
  B:0088H.6       PUBLIC        TR1
  B:00B0H.0       PUBLIC        DAT
  B:00B0H.1       PUBLIC        CLK
  D:00C8H         PUBLIC        T2CON
  C:0081H         PUBLIC        UartService
  C:0068H         PUBLIC        UartConfig
  D:00D0H         PUBLIC        PSW
  -------         PROC          _DELAY_MS
  D:0006H         SYMBOL        mstime
  -------         DO            
  D:0006H         SYMBOL        i
  D:0004H         SYMBOL        j
  -------         ENDDO         
  C:0003H         LINE#         16
  C:0003H         LINE#         17
  C:0003H         LINE#         19
  C:000BH         LINE#         20
  C:0021H         LINE#         21
  -------         ENDPROC       _DELAY_MS
  -------         PROC          _SENDBYTE_74HC164
  D:0007H         SYMBOL        byte
  -------         DO            
  D:0007H         SYMBOL        num
  D:0006H         SYMBOL        c
  -------         ENDDO         
  C:004FH         LINE#         31
  C:004FH         LINE#         32
  C:004FH         LINE#         34
  C:0055H         LINE#         35
  C:0057H         LINE#         36
  C:0057H         LINE#         37
  C:005BH         LINE#         38
BL51 BANKED LINKER/LOCATER V6.22.2.0                                                  11/22/2019  08:14:09  PAGE 3


  C:005DH         LINE#         39
  C:005FH         LINE#         40
  C:0063H         LINE#         41
  C:0067H         LINE#         42
  -------         ENDPROC       _SENDBYTE_74HC164
  -------         PROC          UARTCONFIG
  C:0068H         LINE#         58
  C:0068H         LINE#         59
  C:0068H         LINE#         60
  C:006BH         LINE#         61
  C:006EH         LINE#         62
  C:0071H         LINE#         63
  C:0074H         LINE#         64
  C:0077H         LINE#         65
  C:007AH         LINE#         66
  C:007CH         LINE#         67
  C:007EH         LINE#         68
  C:0080H         LINE#         69
  -------         ENDPROC       UARTCONFIG
  -------         PROC          UARTSERVICE
  -------         DO            
  D:0007H         SYMBOL        temp
  -------         ENDDO         
  C:0081H         LINE#         83
  C:0088H         LINE#         86
  C:008AH         LINE#         87
  C:008CH         LINE#         88
  C:008EH         LINE#         92
  -------         ENDPROC       UARTSERVICE
  -------         PROC          MAIN
  C:0026H         LINE#         98
  C:0026H         LINE#         99
  C:0026H         LINE#         100
  C:0029H         LINE#         101
  C:002CH         LINE#         102
  C:002CH         LINE#         103
  C:002CH         LINE#         104
  C:0046H         LINE#         105
  C:004DH         LINE#         106
  -------         ENDPROC       MAIN
  -------         ENDMOD        MAIN

Program Size: data=10.0 xdata=0 code=169
LINK/LOCATE RUN COMPLETE.  0 WARNING(S),  0 ERROR(S)
