BL51 BANKED LINKER/LOCATER V6.22.2.0                                                    10/01/2019  13:23:05  PAGE 1


BL51 BANKED LINKER/LOCATER V6.22.2.0, INVOKED BY:
E:\KEIL\INSTALL\C51\BIN\BL51.EXE .\Objects\main.obj TO .\Objects\test PRINT (.\Listings\test.m51) RAMSIZE (256)


MEMORY MODEL: SMALL


INPUT MODULES INCLUDED:
  .\Objects\main.obj (MAIN)
  E:\KEIL\INSTALL\C51\LIB\C51S.LIB (?C_STARTUP)


LINK MAP OF MODULE:  .\Objects\test (MAIN)


            TYPE    BASE      LENGTH    RELOCATION   SEGMENT NAME
            -----------------------------------------------------

            * * * * * * *   D A T A   M E M O R Y   * * * * * * *
            REG     0000H     0008H     ABSOLUTE     "REG BANK 0"
            IDATA   0008H     0001H     UNIT         ?STACK

            * * * * * * *   C O D E   M E M O R Y   * * * * * * *
            CODE    0000H     0003H     ABSOLUTE     
            CODE    0003H     0048H     UNIT         ?PR?TEST_LIGHT_BIT?MAIN
            CODE    004BH     003CH     UNIT         ?PR?TEST_LIGHT_BYTE?MAIN
            CODE    0087H     0026H     UNIT         ?PR?_DELAY_MS?MAIN
            CODE    00ADH     0019H     UNIT         ?PR?_SENDBYTE_74HC164?MAIN
            CODE    00C6H     0017H     UNIT         ?PR?MAIN?MAIN
            CODE    00DDH     0010H     UNIT         ?CO?MAIN
            CODE    00EDH     000CH     UNIT         ?C_C51STARTUP



OVERLAY MAP OF MODULE:   .\Objects\test (MAIN)


SEGMENT
  +--> CALLED SEGMENT
---------------------
?C_C51STARTUP
  +--> ?PR?MAIN?MAIN

?PR?MAIN?MAIN
  +--> ?PR?_DELAY_MS?MAIN
  +--> ?PR?TEST_LIGHT_BIT?MAIN
  +--> ?PR?TEST_LIGHT_BYTE?MAIN

?PR?_DELAY_MS?MAIN
  +--> ?PR?_SENDBYTE_74HC164?MAIN

?PR?_SENDBYTE_74HC164?MAIN
  +--> ?CO?MAIN

?PR?TEST_LIGHT_BIT?MAIN
  +--> ?PR?_DELAY_MS?MAIN
  +--> ?PR?_SENDBYTE_74HC164?MAIN

BL51 BANKED LINKER/LOCATER V6.22.2.0                                                  10/01/2019  13:23:05  PAGE 2


?PR?TEST_LIGHT_BYTE?MAIN
  +--> ?PR?_SENDBYTE_74HC164?MAIN
  +--> ?PR?_DELAY_MS?MAIN



SYMBOL TABLE OF MODULE:  .\Objects\test (MAIN)

  VALUE           TYPE          NAME
  ----------------------------------

  -------         MODULE        MAIN
  C:0000H         SYMBOL        _ICE_DUMMY_
  D:0090H         PUBLIC        P1
  D:00B0H         PUBLIC        P3
  D:00A8H         PUBLIC        IE
  C:00ADH         PUBLIC        _SendByte_74HC164
  D:00B8H         PUBLIC        IP
  B:0090H.0       PUBLIC        DPY0
  B:0090H.1       PUBLIC        DPY1
  B:0090H.2       PUBLIC        DPY2
  B:0090H.3       PUBLIC        DPY3
  C:00C6H         PUBLIC        main
  D:0098H         PUBLIC        SCON
  D:0088H         PUBLIC        TCON
  C:00DDH         PUBLIC        tab
  C:00E8H         PUBLIC        wei
  C:008EH         PUBLIC        _delay_ms
  C:004BH         PUBLIC        test_light_byte
  B:00B0H.0       PUBLIC        DAT
  B:00B0H.1       PUBLIC        CLK
  C:0003H         PUBLIC        test_light_bit
  D:00C8H         PUBLIC        T2CON
  B:00B0H.2       PUBLIC        KEY
  D:00D0H         PUBLIC        PSW
  C:0087H         SYMBOL        L?0023
  C:008AH         SYMBOL        L?0024
  -------         PROC          L?0022
  -------         ENDPROC       L?0022
  C:0087H         SYMBOL        L?0023
  C:008AH         SYMBOL        L?0024
  -------         PROC          _DELAY_MS
  D:0006H         SYMBOL        mstime
  -------         DO            
  D:0006H         SYMBOL        i
  D:0004H         SYMBOL        j
  -------         ENDDO         
  C:008EH         LINE#         38
  C:008EH         LINE#         39
  C:008EH         LINE#         41
  C:0096H         LINE#         42
  C:00ACH         LINE#         43
  -------         ENDPROC       _DELAY_MS
  -------         PROC          _SENDBYTE_74HC164
  D:0007H         SYMBOL        byte
  -------         DO            
  D:0007H         SYMBOL        num
BL51 BANKED LINKER/LOCATER V6.22.2.0                                                  10/01/2019  13:23:05  PAGE 3


  D:0006H         SYMBOL        c
  -------         ENDDO         
  C:00ADH         LINE#         53
  C:00ADH         LINE#         54
  C:00ADH         LINE#         56
  C:00B3H         LINE#         57
  C:00B5H         LINE#         58
  C:00B5H         LINE#         59
  C:00B9H         LINE#         60
  C:00BBH         LINE#         61
  C:00BDH         LINE#         62
  C:00C1H         LINE#         63
  C:00C5H         LINE#         64
  -------         ENDPROC       _SENDBYTE_74HC164
  -------         PROC          TEST_LIGHT_BIT
  C:0003H         LINE#         76
  C:0003H         LINE#         77
  C:0003H         LINE#         78
  C:0005H         LINE#         79
  C:0007H         LINE#         80
  C:0009H         LINE#         81
  C:000BH         LINE#         82
  C:000DH         LINE#         83
  C:0010H         LINE#         84
  C:0015H         LINE#         86
  C:0017H         LINE#         87
  C:0019H         LINE#         88
  C:001BH         LINE#         89
  C:001DH         LINE#         90
  C:001FH         LINE#         91
  C:0022H         LINE#         92
  C:0027H         LINE#         94
  C:0029H         LINE#         95
  C:002BH         LINE#         96
  C:002DH         LINE#         97
  C:002FH         LINE#         98
  C:0031H         LINE#         99
  C:0034H         LINE#         100
  C:0039H         LINE#         102
  C:003BH         LINE#         103
  C:003DH         LINE#         104
  C:003FH         LINE#         105
  C:0041H         LINE#         106
  C:0043H         LINE#         107
  C:0046H         LINE#         108
  -------         ENDPROC       TEST_LIGHT_BIT
  -------         PROC          TEST_LIGHT_BYTE
  C:004BH         LINE#         121
  C:004BH         LINE#         122
  C:004BH         LINE#         123
  C:004EH         LINE#         124
  C:0053H         LINE#         125
  C:0056H         LINE#         126
  C:0059H         LINE#         127
  C:005CH         LINE#         129
  C:0061H         LINE#         130
  C:0064H         LINE#         131
BL51 BANKED LINKER/LOCATER V6.22.2.0                                                  10/01/2019  13:23:05  PAGE 4


  C:0067H         LINE#         132
  C:006AH         LINE#         134
  C:006FH         LINE#         135
  C:0072H         LINE#         136
  C:0075H         LINE#         137
  C:0078H         LINE#         139
  C:007DH         LINE#         140
  C:0080H         LINE#         141
  -------         ENDPROC       TEST_LIGHT_BYTE
  -------         PROC          MAIN
  C:00C6H         LINE#         147
  C:00C6H         LINE#         148
  C:00C6H         LINE#         149
  C:00C6H         LINE#         150
  C:00C6H         LINE#         151
  C:00C9H         LINE#         152
  C:00C9H         LINE#         153
  C:00D0H         LINE#         154
  C:00D3H         LINE#         155
  C:00D3H         LINE#         156
  C:00D6H         LINE#         157
  C:00D8H         LINE#         158
  C:00D8H         LINE#         159
  C:00DBH         LINE#         160
  -------         ENDPROC       MAIN
  -------         ENDMOD        MAIN

Program Size: data=9.0 xdata=0 code=249
LINK/LOCATE RUN COMPLETE.  0 WARNING(S),  0 ERROR(S)
