:1000AB0041542B43574D4F44453D320A0041542B8D
:1000BB0043575341503D273141333038272C277458
:1000CB00656E736F72666C6F77272C312C330A0059
:1000DB0041542B4349504D55583D310A0041542B47
:1000EB004349505345525645523D312C3333330A15
:0F00FB000041542B43495053544F3D35300A00B8
:080158008F993099FDC2992234
:1001390012010AFF600C120158740129F9E43AFA14
:0301490080EE2223
:10000300759850758920758BFD758DFDC2ABD28EA9
:10001300D2AF900000AF82AE83E4FCFD7B507AC385
:10002300F9F8D31201234003A380EA7BFF7A007916
:10003300AB120139E4F583F582A3E582B420FAE536
:1000430083B44EF57BFF7A0079B8120139E4F58366
:10005300F582AF82AE83E4FCFD7B507AC3F9F8D31B
:100063001201234003A380EA7BFF7A0079DB1201AC
:1000730039E4F583F582A3E582B420FAE583B44E2F
:10008300F57BFF7A0079E8120139E4F583F582A361
:10009300E582B420FAE583B44EF57BFF7A0079FC60
:0700A300120139C298D2AC32
:0100AA002233
:0301600002000397
:0300000002014CAE
:0C014C00787FE4F6D8FD758107020160A1
:10010A00BB010689828A83E0225002E722BBFE02F3
:09011A00E32289828A83E4932226
:10012300EB9FF5F0EA9E42F0E99D42F0EC6480C853
:0601330064809845F022F3
:00000001FF
