:1000030081D7C8C296A2A0C78082FF0A0A0A020A41
:100013000A02000A020001020001070001070201AF
:1000230007020307020300020300010300010000AB
:1000330001000201000203000203070203070A038F
:0B004300070A0A070A0A0A0A0A0A0A4A
:04011F007F067E00D9
:10012300C3EE6480948040167D707C00ED1D7001E9
:0E0133001CBCFFF8BDFFF5EF1F70E51E80E25B
:01014100229B
:040142001200B1FFF7
:10014600EF90000393FFE4FEEF1392B0C2B1D2B179
:08015600EFC313FF0EBE08F019
:01015E00227E
:1000DE0043900F120098FF1201465390F712011F22
:1000EE0043900F9000011201425390FB12011F43E7
:1000FE00900F9000021201425390FD12011F439087
:10010E000F9000031201425390FE12011F43900FF5
:01011E0022BE
:10004E00E4F508F509750A00750B78E509AE087830
:10005E0002C333CE33CED8F9240EF974003EFA7BA8
:10006E00FF1200DEE50B150B7002150AD3E50B949B
:10007E0000E50A940050D40509E50970020508C38D
:0A008E009410E508940040BD80B610
:0300000002015F9B
:0C015F00787FE4F6D8FD75810B02004E9D
:10009800BB010689828A83E0225002E722BBFE0266
:0900A800E32289828A83E4932299
:1000B100BB010CE58229F582E5833AF583E0225004
:1000C10006E92582F8E622BBFE06E92582F8E2224E
:0D00D100E58229F582E5833AF583E4932268
:00000001FF
