:0B01760081D7C8C296A2A0C78082FEFD
:10015900050DE50D7002050C050DE50D7002050C88
:010169002273
:040103007F067E00F5
:10010700C3EE6480948040167D727C00ED1D700103
:0E0117001CBCFFF8BDFFF5EF1F70E51E80E277
:0101250022B7
:10014000EF90017693FFE4FEEF1392B0C2B1D2B10B
:08015000EFC313FF0EBE08F01F
:010158002284
:04000300AB07AA0697
:100007007C037DE812007E8F0C7C007D64AF03AE1D
:100017000212007EEF75F00A8485F00D7C007D6486
:10002700AF03AE0212007EED75F00A84F50EAE0244
:10003700AF037C007D0A12007EAB0543900FAF0C27
:100047001201405390F712010343900FAF0D1201B5
:10005700405390FB12010343900FAF0E1201405320
:1000670090FD12010343900FAF031201405390FE1E
:0600770012010343900F8B
:01007D002260
:10012600E4FFFE758901F58AF58CD28C120159C25D
:090136008CAF8CEFFEAD8AEDFFE9
:01013F00229D
:1000D3007FC87E001201071201268E088F09750A58
:1000E30000750BC8AF09AE08120003E50B150B70C2
:1000F30002150AD3E50B9400E50A940050E680D775
:0300000002016A90
:0C016A00787FE4F6D8FD75810E0200D30A
:10007E00BC000BBE0029EF8DF084FFADF022E4CC66
:10008E00F875F008EF2FFFEE33FEEC33FCEE9DEC2F
:10009E00984005FCEE9DFE0FD5F0E9E4CEFD22ED75
:1000AE00F8F5F0EE8420D21CFEADF075F008EF2FBF
:1000BE00FFED33FD4007985006D5F0F222C398FDB0
:0500CE000FD5F0EA224D
:00000001FF
