C51 COMPILER V9.57.0.0   MAIN                                                              10/08/2019 17:41:33 PAGE 1   


C51 COMPILER V9.57.0.0, COMPILATION OF MODULE MAIN
OBJECT MODULE PLACED IN .\Objects\main.obj
COMPILER INVOKED BY: E:\keil\install\C51\BIN\C51.EXE main.c OPTIMIZE(8,SPEED) BROWSE DEBUG OBJECTEXTEND PRINT(.\Listings
                    -\main.lst) TABS(2) OBJECT(.\Objects\main.obj)

line level    source

   1          /****************************************************
   2          *
   3          * ESP8266 AT指令测试
   4          *
   5          *****************************************************/
   6          
   7          #include<reg52.h>
   8          #define uchar unsigned char   //宏定义一个无符号的char类型
   9          #define uint unsigned int     //宏定义一个无符号的int类型
  10          
  11          //发送一字节
  12          void sendByte(uchar b)
  13          {
  14   1        SBUF = b;
  15   1        while(!TI);
  16   1        TI=0;
  17   1      }
  18          
  19          //发送字符串
  20          void sendString(uchar *s)
  21          {
  22   1        while(*s != '\0') //字符串默认结尾'\0'，以此来判断字符串的结束
  23   1        {
  24   2          sendByte(*s);
  25   2          s++;
  26   2        }
  27   1      }
  28          
  29          //初始化ESP8266WiFi模块
  30          void initEsp()
  31          {
  32   1        uint a;
  33   1        SCON = 0x50;    //8位数据，可变波特率
  34   1        TMOD = 0x20;    //设置定时器1位16位自动重装模式
  35   1        TL1 = 0xfd;     //设置定时器初值，波特率为9600
  36   1        TH1 = 0xfd;
  37   1        ET1 = 0;        //禁止定时器1中断
  38   1        TR1 = 1;        //启动定时器1
  39   1        EA = 1;
  40   1      
  41   1        for (a=0; a<50000; a++);    //延时几秒，让模块有时间启动
  42   1        sendString("AT+CWMODE=2\n");  //设置为softAP和station共存模式
  43   1      
  44   1        //WiFi热点不能通过代码设置，可使用串口助手进行设置，该设置断电不丢失
  45   1        for (a=0; a<20000; a++);
  46   1        sendString("AT+CWSAP='1A308','tensorflow',1,3\n"); //建立WiFi热点
  47   1      
  48   1        for (a=0; a<50000; a++);    
  49   1        sendString("AT+CIPMUX=1\n"); //启动多连接
  50   1      
  51   1        for (a=0; a<20000; a++);
  52   1        sendString("AT+CIPSERVER=1,333\n");//建立server，端口为333
  53   1      
  54   1        for (a=0; a<20000; a++);
C51 COMPILER V9.57.0.0   MAIN                                                              10/08/2019 17:41:33 PAGE 2   

  55   1        sendString("AT+CIPSTO=50\n");     //服务器超时时间设置
  56   1      
  57   1        RI=0;
  58   1        ES=1;   //初始化完成，串行口中断打开
  59   1      }
  60          
  61          //主函数  
  62          void  main()  
  63          {  
  64   1        initEsp();
  65   1      }      


MODULE INFORMATION:   STATIC OVERLAYABLE
   CODE SIZE        =    198    ----
   CONSTANT SIZE    =     95    ----
   XDATA SIZE       =   ----    ----
   PDATA SIZE       =   ----    ----
   DATA SIZE        =   ----    ----
   IDATA SIZE       =   ----    ----
   BIT SIZE         =   ----    ----
END OF MODULE INFORMATION.


C51 COMPILATION COMPLETE.  0 WARNING(S),  0 ERROR(S)
