:0B03910081D7C8C296A2A0C78082FEE0
:100374000511E511700205100511E5117002051053
:010384002256
:040338007F067E00BE
:10033C00C3EE6480948040167D727C00ED1D7001CC
:0E034C001CBCFFF8BDFFF5EF1F70E51E80E240
:01035A002280
:10035B00EF90039193FFE4FEEF1392B0C2B1D2B1D1
:08036B00EFC313FF0EBE08F002
:010373002267
:04022B00AB07AA066D
:10022F007C037DE81201C88F0C7C007D64AF03AEA8
:10023F00021201C8EF75F00A8485F00D7C007D6411
:10024F00AF03AE021201C8ED75F00A84F50EAE02CF
:10025F00AF037C007D0A1201C8AB05C2B5E50CC324
:10026F00940A4003750C0A43900FAF0C12035B53B3
:10027F0090F712033843900FAF0D12035B5390FBAF
:10028F0012033843900FAF0E12035B5390FD12030E
:10029F003843900FAF0312035B5390FE12033843A2
:0202AF00900FAE
:0102B100222A
:1002B200E4F50FF50EF50DF50CFFFE758901F58AD3
:1002C200F58CD294120374C2943095FDD28C209591
:1002D200FDC28CAF8CEFFEAD8AEDFFAC06E41201DD
:1002E2000E7B727A1C7917783D1200038F0F8E0EE7
:0402F2008D0D8C0CD6
:0102F60022E5
:1002F700C294D2957FC87E0012033C1202B2E4FB7F
:10030700FA792078411200031201478E088F097588
:100317000A00750BC8AF09AE0812022BE50B150BC7
:100327007002150AD3E50B9400E50A940050E680A5
:01033700CAFB
:10000300EC4D6011E8497017ED33EC3304600DE4F7
:10001300FCFFFEFD22E933E8330470F80201B3125A
:10002300017E58046009E4CC24815006285009025B
:1000330001BD2840030201BAC0E0EB4A7044B98015
:1000430006D0E0FB0201A9EF4E701CBD8008EBFF58
:10005300EAFEE9FD80EBE98DF0A4FEE5F00200EC99
:10006300E9CDF9EAFEEBFFEF89F0A4FCE5F0CE89D8
:10007300F0A42EFFE435F0CD89F0A42DFEE435F095
:100083008067EF4E7005BD80D780C3EF8BF0A4ACC3
:10009300F0EE8BF0A42CFCE435F0F8EF8AF0A42CFE
:1000A300E5F038FCE433CB8DF0A42CFCE5F03BF811
:1000B300EE8AF0A42CFCE5F038F8E433CF89F0A401
:1000C3002CFCE5F038CF3400CE89F0A42FFFE5F007
:1000D3003EFEE433C98DF0A42EFEE5F039CD8AF05F
:1000E300A42FFFE5F03EFEE43DFD33D0E0FB5007D7
:1000F3000BBB000F0201BDEC2CFCEF33FFEE33FE14
:06010300ED33FD02019541
:1001090075F020800E75F010800575F0087D007E71
:10011900007F003392D530D50312021DEC33401015
:10012900EF33FFEE33FEED33FDEC33FCD5F0ED227A
:0E013900E5F0247EA2D513CC92E7CDCEFF22B6
:10014700EDD2E7CD33EC3392D524814006E4FFFEB0
:10015700FDFC22FCE4CFCECDCC24E0501174FF800F
:10016700EDC3CC13CCCD13CDCE13CECF13CF0470AC
:07017700F030D5DE02021D8D
:10017E00E9D2E7C933E833F892D5EDD2E7CD33ECC7
:07018E0033FC5002B2D52240
:10019500EC30E7100FBF000C0EBE00080DBD0004CB
:1001A5000BEB6014A2D5EB13FCED92E7FD2274FF77
:1001B500FCFDFEFF22E480F8A2D574FF13FC7D80D0
:0301C500E480EFE4
:0300000002038573
:0C038500787FE4F6D8FD7581110202F7C4
:1001C800BC000BBE0029EF8DF084FFADF022E4CC1B
:1001D800F875F008EF2FFFEE33FEEC33FCEE9DECE4
:1001E800984005FCEE9DFE0FD5F0E9E4CEFD22ED2A
:1001F800F8F5F0EE8420D21CFEADF075F008EF2F74
:10020800FFED33FD4007985006D5F0F222C398FD64
:050218000FD5F0EA2201
:0E021D00C3E49FFFE49EFEE49DFDE49CFC22F2
:00000001FF
